:020000040800F2
:1000000060060020B1010008B9010008BB0100082A
:10001000BD010008BF010008C10100080000000088
:10002000000000000000000000000000C301000804
:10003000C501000800000000C7010008C901000850
:10004000CB010008CB010008CB010008CB01000860
:10005000CB010008CB010008CB010008CB01000850
:10006000CB010008CB010008CB010008CB01000840
:10007000CB010008CB010008CB010008CB01000830
:10008000CB010008CB010008CB010008CB01000820
:10009000CB010008CB010008CB010008CB01000810
:1000A000CB010008CB010008CB010008CB01000800
:1000B000CB010008CB010008CB010008CB010008F0
:1000C000CB010008CB010008CB010008CB010008E0
:1000D000CB010008CB010008CB010008CB010008D0
:1000E000CB010008CB010008CB010008CB010008C0
:1000F000CB010008CB010008CB010008CB010008B0
:10010000CB010008CB010008CB010008CB0100089F
:10011000CB010008CB010008CB010008CB0100088F
:10012000CB010008CB010008CB010008CB0100087F
:1001300000F002F800F02CF80AA090E8000C8244CD
:100140008344AAF10107DA4501D100F021F8AFF2AA
:10015000090EBAE80F0013F0010F18BFFB1A43F0A5
:10016000010318479C020000AC0200000023002499
:1001700000250026103A28BF78C1FBD8520728BFB7
:1001800030C148BF0B6070471FB51FBD10B510BD13
:1001900000F031F81146FFF7F7FF00F005F900F025
:1001A0004FF803B4FFF7F2FF03BC00F057F800006C
:1001B0000948804709480047FEE7FEE7FEE7FEE7FB
:1001C000FEE7FEE7FEE7FEE7FEE7FEE70448054937
:1001D000054A064B704700006D0200083101000817
:1001E0006000002060060020600200206002002005
:1001F000704770477047754600F02CF8AE46050012
:100200006946534620F00700854618B020B5FFF731
:10021000DDFFBDE820404FF000064FF000074FF033
:1002200000084FF0000B21F00701AC46ACE8C00914
:10023000ACE8C009ACE8C009ACE8C0098D4670471D
:1002400010B50446AFF300802046BDE81040FFF72C
:10025000A8BF000000487047000000200149182096
:10026000ABBEFEE726000200704700003A48006877
:100270004FF6837108403849086000204860886064
:10028000C860086148618861C8610846006840F03C
:100290000100086000BF3048006800F0020000283C
:1002A000F9D02D48006840F480302B49086000BF29
:1002B0002948006800F400300028F9D0264840683A
:1002C000254948600846406840F480604860084618
:1002D000406848600846406840F4004048601F4855
:1002E000006840F010001D4908600846006820F0D2
:1002F000070008600846006840F0020008604FF000
:100300000060174908601448406840F48030124982
:1003100048600846406848600846406840F4E0107D
:1003200048600846006840F08070086000BF0A48D6
:10033000006800F000700028F9D00748406840F0DD
:1003400002000549486000BF0348406800F00C0007
:100350000828F9D170470000001002400020024038
:1003600008ED00E0014642F228324A434FF0E02314
:100370005A6100229A611A46126942F001021A611A
:1003800000BF4FF0E022106900F48032002AF8D05C
:100390004FF0E022126922F001024FF0E0231A61CF
:1003A00000225A619A6170471348806940F040000A
:1003B000114988611148006820F470000F490860F5
:1003C0000846006840F4001008600C4810300068CF
:1003D00040F020000949103108600BE007480C305C
:1003E000006880F0200005490C3108604FF4FA7075
:1003F000FFF7B8FFF2E700000010024000180140CC
:100400001004000800000020600600006C010008D5
:0400000508000131BD
:00000001FF
